{
  "contractName": "Authorizable",
  "abi": [
    {
      "inputs": [],
      "payable": false,
      "stateMutability": "nonpayable",
      "type": "constructor"
    },
    {
      "constant": true,
      "inputs": [
        {
          "name": "_addr",
          "type": "address"
        }
      ],
      "name": "isAuthorized",
      "outputs": [
        {
          "name": "",
          "type": "bool"
        }
      ],
      "payable": false,
      "stateMutability": "view",
      "type": "function"
    },
    {
      "constant": false,
      "inputs": [
        {
          "name": "_addr",
          "type": "address"
        }
      ],
      "name": "addAuthorized",
      "outputs": [],
      "payable": false,
      "stateMutability": "nonpayable",
      "type": "function"
    },
    {
      "constant": false,
      "inputs": [
        {
          "name": "_addr",
          "type": "address"
        }
      ],
      "name": "delAuthorized",
      "outputs": [],
      "payable": false,
      "stateMutability": "nonpayable",
      "type": "function"
    }
  ],
  "bytecode": "0x608060405234801561001057600080fd5b5060016000803373ffffffffffffffffffffffffffffffffffffffff1673ffffffffffffffffffffffffffffffffffffffff16815260200190815260200160002060006101000a81548160ff021916908315150217905550610385806100776000396000f300608060405260043610610057576000357c0100000000000000000000000000000000000000000000000000000000900463ffffffff16806331a40b621461005c578063cf1c316a1461009f578063fe9fbb80146100e2575b600080fd5b34801561006857600080fd5b5061009d600480360381019080803573ffffffffffffffffffffffffffffffffffffffff16906020019092919050505061013d565b005b3480156100ab57600080fd5b506100e0600480360381019080803573ffffffffffffffffffffffffffffffffffffffff169060200190929190505050610219565b005b3480156100ee57600080fd5b50610123600480360381019080803573ffffffffffffffffffffffffffffffffffffffff1690602001909291905050506102c3565b604051808215151515815260200191505060405180910390f35b610146336102c3565b151561015157600080fd5b600073ffffffffffffffffffffffffffffffffffffffff168173ffffffffffffffffffffffffffffffffffffffff161415151561018d57600080fd5b3373ffffffffffffffffffffffffffffffffffffffff168173ffffffffffffffffffffffffffffffffffffffff16141515156101c857600080fd5b6000808273ffffffffffffffffffffffffffffffffffffffff1673ffffffffffffffffffffffffffffffffffffffff16815260200190815260200160002060006101000a81549060ff021916905550565b610222336102c3565b151561022d57600080fd5b600073ffffffffffffffffffffffffffffffffffffffff168173ffffffffffffffffffffffffffffffffffffffff161415151561026957600080fd5b60016000808373ffffffffffffffffffffffffffffffffffffffff1673ffffffffffffffffffffffffffffffffffffffff16815260200190815260200160002060006101000a81548160ff02191690831515021790555050565b600080600073ffffffffffffffffffffffffffffffffffffffff168373ffffffffffffffffffffffffffffffffffffffff161415151561030257600080fd5b6000808473ffffffffffffffffffffffffffffffffffffffff1673ffffffffffffffffffffffffffffffffffffffff16815260200190815260200160002060009054906101000a900460ff169050809150509190505600a165627a7a72305820ecfec8995c04bc233bbe32a0730e80ae4e6442d2b4386319087a744fc4297f840029",
  "source": "pragma solidity ^0.4.18;\n\ncontract Authorizable {\n    mapping(address => bool) authorizers;\n\n    modifier onlyAuthorized {\n        require(isAuthorized(msg.sender));\n        _;\n    }\n\n    function Authorizable() public {\n        authorizers[msg.sender] = true;\n    }\n\n\n    function isAuthorized(address _addr) public constant returns(bool) {\n        require(_addr != address(0));\n\n        bool result = bool(authorizers[_addr]);\n        return result;\n    }\n\n    function addAuthorized(address _addr) external onlyAuthorized {\n        require(_addr != address(0));\n\n        authorizers[_addr] = true;\n    }\n\n    function delAuthorized(address _addr) external onlyAuthorized {\n        require(_addr != address(0));\n        require(_addr != msg.sender);\n\n        //authorizers[_addr] = false;\n        delete authorizers[_addr];\n    }\n}\n",
  "sourcePath": "/home/sevenflash/apps/blockchain/mallcoin/contracts/Authorizable.sol",
  "compiler": {
    "name": "solc",
    "version": "0.4.23+commit.124ca40d.Emscripten.clang"
  },
  "schemaVersion": "2.0.0",
  "updatedAt": "2018-09-24T16:11:00.440Z"
}